{
  "_format": "hh-sol-artifact-1",
  "contractName": "EarthFi",
  "sourceName": "contracts/EarthFi.sol",
  "abi": [
    {
      "inputs": [
        {
          "internalType": "address",
          "name": "_buyer",
          "type": "address"
        },
        {
          "internalType": "address",
          "name": "_seller",
          "type": "address"
        },
        {
          "internalType": "uint256",
          "name": "_amount",
          "type": "uint256"
        }
      ],
      "stateMutability": "nonpayable",
      "type": "constructor"
    },
    {
      "inputs": [],
      "name": "amount",
      "outputs": [
        {
          "internalType": "uint256",
          "name": "",
          "type": "uint256"
        }
      ],
      "stateMutability": "view",
      "type": "function"
    },
    {
      "inputs": [],
      "name": "approveTransaction",
      "outputs": [],
      "stateMutability": "nonpayable",
      "type": "function"
    },
    {
      "inputs": [],
      "name": "buyer",
      "outputs": [
        {
          "internalType": "address",
          "name": "",
          "type": "address"
        }
      ],
      "stateMutability": "view",
      "type": "function"
    },
    {
      "inputs": [
        {
          "internalType": "address",
          "name": "_newSeller",
          "type": "address"
        }
      ],
      "name": "changeSeller",
      "outputs": [],
      "stateMutability": "nonpayable",
      "type": "function"
    },
    {
      "inputs": [],
      "name": "deposit",
      "outputs": [],
      "stateMutability": "payable",
      "type": "function"
    },
    {
      "inputs": [],
      "name": "escrowAgent",
      "outputs": [
        {
          "internalType": "address",
          "name": "",
          "type": "address"
        }
      ],
      "stateMutability": "view",
      "type": "function"
    },
    {
      "inputs": [],
      "name": "isBuyerDeposited",
      "outputs": [
        {
          "internalType": "bool",
          "name": "",
          "type": "bool"
        }
      ],
      "stateMutability": "view",
      "type": "function"
    },
    {
      "inputs": [
        {
          "internalType": "address",
          "name": "account",
          "type": "address"
        }
      ],
      "name": "isSeller",
      "outputs": [
        {
          "internalType": "bool",
          "name": "",
          "type": "bool"
        }
      ],
      "stateMutability": "view",
      "type": "function"
    },
    {
      "inputs": [],
      "name": "isSellerApproved",
      "outputs": [
        {
          "internalType": "bool",
          "name": "",
          "type": "bool"
        }
      ],
      "stateMutability": "view",
      "type": "function"
    },
    {
      "inputs": [],
      "name": "refundBuyer",
      "outputs": [],
      "stateMutability": "nonpayable",
      "type": "function"
    },
    {
      "inputs": [],
      "name": "releaseFunds",
      "outputs": [],
      "stateMutability": "nonpayable",
      "type": "function"
    },
    {
      "inputs": [],
      "name": "seller",
      "outputs": [
        {
          "internalType": "address",
          "name": "",
          "type": "address"
        }
      ],
      "stateMutability": "view",
      "type": "function"
    }
  ],
  "bytecode": "0x60806040523480156200001157600080fd5b50604051620011e4380380620011e4833981810160405281019062000037919062000137565b33600260006101000a81548173ffffffffffffffffffffffffffffffffffffffff021916908373ffffffffffffffffffffffffffffffffffffffff160217905550826000806101000a81548173ffffffffffffffffffffffffffffffffffffffff021916908373ffffffffffffffffffffffffffffffffffffffff16021790555081600160006101000a81548173ffffffffffffffffffffffffffffffffffffffff021916908373ffffffffffffffffffffffffffffffffffffffff16021790555080600381905550505050620001ff565b6000815190506200011a81620001cb565b92915050565b6000815190506200013181620001e5565b92915050565b6000806000606084860312156200014d57600080fd5b60006200015d8682870162000109565b9350506020620001708682870162000109565b9250506040620001838682870162000120565b9150509250925092565b60006200019a82620001a1565b9050919050565b600073ffffffffffffffffffffffffffffffffffffffff82169050919050565b6000819050919050565b620001d6816200018d565b8114620001e257600080fd5b50565b620001f081620001c1565b8114620001fc57600080fd5b50565b610fd5806200020f6000396000f3fe6080604052600436106100a75760003560e01c8063cd3a376a11610064578063cd3a376a14610186578063d0e30db0146101af578063d35eaf72146101b9578063e1f6c098146101e4578063e8a61cc81461020f578063ee95feaf14610226576100a7565b806308551a53146100ac57806333b7a674146100d757806369d89575146100ee5780637150d8ae14610105578063aa8c217c14610130578063c7984be41461015b575b600080fd5b3480156100b857600080fd5b506100c1610263565b6040516100ce9190610dbe565b60405180910390f35b3480156100e357600080fd5b506100ec610289565b005b3480156100fa57600080fd5b50610103610385565b005b34801561011157600080fd5b5061011a610528565b6040516101279190610dbe565b60405180910390f35b34801561013c57600080fd5b5061014561054c565b6040516101529190610f14565b60405180910390f35b34801561016757600080fd5b50610170610552565b60405161017d9190610dd9565b60405180910390f35b34801561019257600080fd5b506101ad60048036038101906101a89190610a6a565b610565565b005b6101b76106a9565b005b3480156101c557600080fd5b506101ce6107e8565b6040516101db9190610dd9565b60405180910390f35b3480156101f057600080fd5b506101f96107fb565b6040516102069190610dbe565b60405180910390f35b34801561021b57600080fd5b50610224610821565b005b34801561023257600080fd5b5061024d60048036038101906102489190610a6a565b6109c3565b60405161025a9190610dd9565b60405180910390f35b600160009054906101000a900473ffffffffffffffffffffffffffffffffffffffff1681565b600160009054906101000a900473ffffffffffffffffffffffffffffffffffffffff1673ffffffffffffffffffffffffffffffffffffffff163373ffffffffffffffffffffffffffffffffffffffff1614610319576040517f08c379a000000000000000000000000000000000000000000000000000000000815260040161031090610e94565b60405180910390fd5b600460009054906101000a900460ff16610368576040517f08c379a000000000000000000000000000000000000000000000000000000000815260040161035f90610e54565b60405180910390fd5b6001600460016101000a81548160ff021916908315150217905550565b600260009054906101000a900473ffffffffffffffffffffffffffffffffffffffff1673ffffffffffffffffffffffffffffffffffffffff163373ffffffffffffffffffffffffffffffffffffffff1614610415576040517f08c379a000000000000000000000000000000000000000000000000000000000815260040161040c90610ef4565b60405180910390fd5b600460009054906101000a900460ff16610464576040517f08c379a000000000000000000000000000000000000000000000000000000000815260040161045b90610e54565b60405180910390fd5b600460019054906101000a900460ff166104b3576040517f08c379a00000000000000000000000000000000000000000000000000000000081526004016104aa90610e34565b60405180910390fd5b600160009054906101000a900473ffffffffffffffffffffffffffffffffffffffff1673ffffffffffffffffffffffffffffffffffffffff166108fc6003549081150290604051600060405180830381858888f1935050505015801561051d573d6000803e3d6000fd5b50610526610a1d565b565b60008054906101000a900473ffffffffffffffffffffffffffffffffffffffff1681565b60035481565b600460019054906101000a900460ff1681565b600160009054906101000a900473ffffffffffffffffffffffffffffffffffffffff1673ffffffffffffffffffffffffffffffffffffffff163373ffffffffffffffffffffffffffffffffffffffff16146105f5576040517f08c379a00000000000000000000000000000000000000000000000000000000081526004016105ec90610e94565b60405180910390fd5b600073ffffffffffffffffffffffffffffffffffffffff168173ffffffffffffffffffffffffffffffffffffffff161415610665576040517f08c379a000000000000000000000000000000000000000000000000000000000815260040161065c90610e14565b60405180910390fd5b80600160006101000a81548173ffffffffffffffffffffffffffffffffffffffff021916908373ffffffffffffffffffffffffffffffffffffffff16021790555050565b60008054906101000a900473ffffffffffffffffffffffffffffffffffffffff1673ffffffffffffffffffffffffffffffffffffffff163373ffffffffffffffffffffffffffffffffffffffff1614610737576040517f08c379a000000000000000000000000000000000000000000000000000000000815260040161072e90610ed4565b60405180910390fd5b600354341461077b576040517f08c379a000000000000000000000000000000000000000000000000000000000815260040161077290610eb4565b60405180910390fd5b600460009054906101000a900460ff16156107cb576040517f08c379a00000000000000000000000000000000000000000000000000000000081526004016107c290610e74565b60405180910390fd5b6001600460006101000a81548160ff021916908315150217905550565b600460009054906101000a900460ff1681565b600260009054906101000a900473ffffffffffffffffffffffffffffffffffffffff1681565b600260009054906101000a900473ffffffffffffffffffffffffffffffffffffffff1673ffffffffffffffffffffffffffffffffffffffff163373ffffffffffffffffffffffffffffffffffffffff16146108b1576040517f08c379a00000000000000000000000000000000000000000000000000000000081526004016108a890610ef4565b60405180910390fd5b600460009054906101000a900460ff16610900576040517f08c379a00000000000000000000000000000000000000000000000000000000081526004016108f790610e54565b60405180910390fd5b600460019054906101000a900460ff1615610950576040517f08c379a000000000000000000000000000000000000000000000000000000000815260040161094790610df4565b60405180910390fd5b60008054906101000a900473ffffffffffffffffffffffffffffffffffffffff1673ffffffffffffffffffffffffffffffffffffffff166108fc6003549081150290604051600060405180830381858888f193505050501580156109b8573d6000803e3d6000fd5b506109c1610a1d565b565b6000600160009054906101000a900473ffffffffffffffffffffffffffffffffffffffff1673ffffffffffffffffffffffffffffffffffffffff168273ffffffffffffffffffffffffffffffffffffffff16149050919050565b6000600460006101000a81548160ff0219169083151502179055506000600460016101000a81548160ff021916908315150217905550565b600081359050610a6481610f88565b92915050565b600060208284031215610a7c57600080fd5b6000610a8a84828501610a55565b91505092915050565b610a9c81610f40565b82525050565b610aab81610f52565b82525050565b6000610abe602283610f2f565b91507f43616e6e6f7420726566756e642c2073656c6c65722068617320617070726f7660008301527f65640000000000000000000000000000000000000000000000000000000000006020830152604082019050919050565b6000610b24600f83610f2f565b91507f496e76616c6964206164647265737300000000000000000000000000000000006000830152602082019050919050565b6000610b64602783610f2f565b91507f53656c6c657220686173206e6f7420617070726f76656420746865207472616e60008301527f73616374696f6e000000000000000000000000000000000000000000000000006020830152604082019050919050565b6000610bca601483610f2f565b91507f4465706f736974206e6f7420796574206d6164650000000000000000000000006000830152602082019050919050565b6000610c0a601483610f2f565b91507f4465706f73697420616c7265616479206d6164650000000000000000000000006000830152602082019050919050565b6000610c4a602283610f2f565b91507f4f6e6c792073656c6c65722063616e2063616c6c20746869732066756e63746960008301527f6f6e0000000000000000000000000000000000000000000000000000000000006020830152604082019050919050565b6000610cb0601883610f2f565b91507f496e636f7272656374206465706f73697420616d6f756e7400000000000000006000830152602082019050919050565b6000610cf0602183610f2f565b91507f4f6e6c792062757965722063616e2063616c6c20746869732066756e6374696f60008301527f6e000000000000000000000000000000000000000000000000000000000000006020830152604082019050919050565b6000610d56602883610f2f565b91507f4f6e6c7920657363726f77206167656e742063616e2063616c6c20746869732060008301527f66756e6374696f6e0000000000000000000000000000000000000000000000006020830152604082019050919050565b610db881610f7e565b82525050565b6000602082019050610dd36000830184610a93565b92915050565b6000602082019050610dee6000830184610aa2565b92915050565b60006020820190508181036000830152610e0d81610ab1565b9050919050565b60006020820190508181036000830152610e2d81610b17565b9050919050565b60006020820190508181036000830152610e4d81610b57565b9050919050565b60006020820190508181036000830152610e6d81610bbd565b9050919050565b60006020820190508181036000830152610e8d81610bfd565b9050919050565b60006020820190508181036000830152610ead81610c3d565b9050919050565b60006020820190508181036000830152610ecd81610ca3565b9050919050565b60006020820190508181036000830152610eed81610ce3565b9050919050565b60006020820190508181036000830152610f0d81610d49565b9050919050565b6000602082019050610f296000830184610daf565b92915050565b600082825260208201905092915050565b6000610f4b82610f5e565b9050919050565b60008115159050919050565b600073ffffffffffffffffffffffffffffffffffffffff82169050919050565b6000819050919050565b610f9181610f40565b8114610f9c57600080fd5b5056fea264697066735822122081765c51c9ef97f51b7ea862cf5a161e500e9978e8cbb4ba1f5a9cabe9b1e9dd64736f6c63430008000033",
  "linkReferences": {},
  "deployedLinkReferences": {}
}